{
  "_format": "hh-sol-artifact-1",
  "contractName": "NFTPool",
  "sourceName": "contracts/NFTPool/NFTPool.sol",
  "abi": [
    {
      "anonymous": false,
      "inputs": [
        {
          "indexed": true,
          "internalType": "address",
          "name": "owner",
          "type": "address"
        },
        {
          "indexed": false,
          "internalType": "address",
          "name": "to",
          "type": "address"
        },
        {
          "indexed": true,
          "internalType": "address",
          "name": "nftAsset",
          "type": "address"
        },
        {
          "indexed": true,
          "internalType": "uint256",
          "name": "id",
          "type": "uint256"
        }
      ],
      "name": "DepositNFT",
      "type": "event"
    },
    {
      "anonymous": false,
      "inputs": [
        {
          "indexed": true,
          "internalType": "address",
          "name": "previousOwner",
          "type": "address"
        },
        {
          "indexed": true,
          "internalType": "address",
          "name": "newOwner",
          "type": "address"
        }
      ],
      "name": "OwnershipTransferred",
      "type": "event"
    },
    {
      "anonymous": false,
      "inputs": [
        {
          "indexed": true,
          "internalType": "address",
          "name": "owner",
          "type": "address"
        },
        {
          "indexed": false,
          "internalType": "address",
          "name": "to",
          "type": "address"
        },
        {
          "indexed": true,
          "internalType": "address",
          "name": "nftAsset",
          "type": "address"
        },
        {
          "indexed": true,
          "internalType": "uint256",
          "name": "id",
          "type": "uint256"
        }
      ],
      "name": "WithdrawNFT",
      "type": "event"
    },
    {
      "inputs": [
        {
          "internalType": "address",
          "name": "nftAsset",
          "type": "address"
        },
        {
          "internalType": "string",
          "name": "xNftSymble",
          "type": "string"
        }
      ],
      "name": "addNft",
      "outputs": [
        {
          "internalType": "address",
          "name": "",
          "type": "address"
        }
      ],
      "stateMutability": "nonpayable",
      "type": "function"
    },
    {
      "inputs": [
        {
          "internalType": "address",
          "name": "nftAsset",
          "type": "address"
        },
        {
          "internalType": "uint256",
          "name": "nftTokenId",
          "type": "uint256"
        }
      ],
      "name": "depositNFT",
      "outputs": [],
      "stateMutability": "nonpayable",
      "type": "function"
    },
    {
      "inputs": [
        {
          "internalType": "address",
          "name": "nftAsset",
          "type": "address"
        }
      ],
      "name": "getXNftAddress",
      "outputs": [
        {
          "internalType": "address",
          "name": "",
          "type": "address"
        }
      ],
      "stateMutability": "view",
      "type": "function"
    },
    {
      "inputs": [
        {
          "internalType": "address",
          "name": "operator",
          "type": "address"
        },
        {
          "internalType": "address",
          "name": "from",
          "type": "address"
        },
        {
          "internalType": "uint256",
          "name": "tokenId",
          "type": "uint256"
        },
        {
          "internalType": "bytes",
          "name": "data",
          "type": "bytes"
        }
      ],
      "name": "onERC721Received",
      "outputs": [
        {
          "internalType": "bytes4",
          "name": "",
          "type": "bytes4"
        }
      ],
      "stateMutability": "pure",
      "type": "function"
    },
    {
      "inputs": [],
      "name": "owner",
      "outputs": [
        {
          "internalType": "address",
          "name": "",
          "type": "address"
        }
      ],
      "stateMutability": "view",
      "type": "function"
    },
    {
      "inputs": [],
      "name": "renounceOwnership",
      "outputs": [],
      "stateMutability": "nonpayable",
      "type": "function"
    },
    {
      "inputs": [
        {
          "internalType": "address",
          "name": "newOwner",
          "type": "address"
        }
      ],
      "name": "transferOwnership",
      "outputs": [],
      "stateMutability": "nonpayable",
      "type": "function"
    },
    {
      "inputs": [
        {
          "internalType": "address",
          "name": "nftAsset",
          "type": "address"
        },
        {
          "internalType": "uint256",
          "name": "nftTokenId",
          "type": "uint256"
        }
      ],
      "name": "withdrawNFT",
      "outputs": [],
      "stateMutability": "nonpayable",
      "type": "function"
    }
  ],
  "bytecode": "0x608060405234801561001057600080fd5b5061002d61002261003260201b60201c565b61003a60201b60201c565b6100fe565b600033905090565b60008060009054906101000a900473ffffffffffffffffffffffffffffffffffffffff169050816000806101000a81548173ffffffffffffffffffffffffffffffffffffffff021916908373ffffffffffffffffffffffffffffffffffffffff1602179055508173ffffffffffffffffffffffffffffffffffffffff168173ffffffffffffffffffffffffffffffffffffffff167f8be0079c531659141344cd1fd0a4f28419497f9722a3daafe3b4186f6b6457e060405160405180910390a35050565b6153c78061010d6000396000f3fe60806040523480156200001157600080fd5b5060043610620000945760003560e01c806398566a20116200006357806398566a20146200011d5780639b5b9b181462000153578063adf56bba1462000173578063f2fde38b14620001a95762000094565b8063150b7a0214620000995780636088e93a14620000cf578063715018a614620000ef5780638da5cb5b14620000fb575b600080fd5b620000b76004803603810190620000b1919062000e17565b620001c9565b604051620000c6919062001274565b60405180910390f35b620000ed6004803603810190620000e7919062000efb565b620001de565b005b620000f962000478565b005b6200010562000509565b60405162000114919062001192565b60405180910390f35b6200013b600480360381019062000135919062000dbf565b62000532565b6040516200014a919062001192565b60405180910390f35b6200017160048036038101906200016b919062000efb565b6200060d565b005b6200019160048036038101906200018b919062000ea1565b6200091a565b604051620001a0919062001192565b60405180910390f35b620001c76004803603810190620001c1919062000dbf565b62000add565b005b600063150b7a0260e01b905095945050505050565b3373ffffffffffffffffffffffffffffffffffffffff16600160008473ffffffffffffffffffffffffffffffffffffffff1673ffffffffffffffffffffffffffffffffffffffff16815260200190815260200160002060009054906101000a900473ffffffffffffffffffffffffffffffffffffffff1673ffffffffffffffffffffffffffffffffffffffff16636352211e836040518263ffffffff1660e01b81526004016200028f91906200133b565b60206040518083038186803b158015620002a857600080fd5b505afa158015620002bd573d6000803e3d6000fd5b505050506040513d601f19601f82011682018060405250810190620002e3919062000deb565b73ffffffffffffffffffffffffffffffffffffffff16146200033c576040517f08c379a0000000000000000000000000000000000000000000000000000000008152600401620003339062001319565b60405180910390fd5b600160008373ffffffffffffffffffffffffffffffffffffffff1673ffffffffffffffffffffffffffffffffffffffff16815260200190815260200160002060009054906101000a900473ffffffffffffffffffffffffffffffffffffffff1673ffffffffffffffffffffffffffffffffffffffff16639dc29fac33836040518363ffffffff1660e01b8152600401620003d892919062001247565b600060405180830381600087803b158015620003f357600080fd5b505af115801562000408573d6000803e3d6000fd5b50505050808273ffffffffffffffffffffffffffffffffffffffff163373ffffffffffffffffffffffffffffffffffffffff167fa766742a23fe9ecbd32c553cd9ad3115b2d15c6b72cd5e95858f5a911d55cb45306040516200046c919062001192565b60405180910390a45050565b6200048262000be1565b73ffffffffffffffffffffffffffffffffffffffff16620004a262000509565b73ffffffffffffffffffffffffffffffffffffffff1614620004fb576040517f08c379a0000000000000000000000000000000000000000000000000000000008152600401620004f290620012f7565b60405180910390fd5b62000507600062000be9565b565b60008060009054906101000a900473ffffffffffffffffffffffffffffffffffffffff16905090565b60008073ffffffffffffffffffffffffffffffffffffffff168273ffffffffffffffffffffffffffffffffffffffff161415620005a6576040517f08c379a00000000000000000000000000000000000000000000000000000000081526004016200059d9062001291565b60405180910390fd5b600160008373ffffffffffffffffffffffffffffffffffffffff1673ffffffffffffffffffffffffffffffffffffffff16815260200190815260200160002060009054906101000a900473ffffffffffffffffffffffffffffffffffffffff169050919050565b3373ffffffffffffffffffffffffffffffffffffffff168273ffffffffffffffffffffffffffffffffffffffff16636352211e836040518263ffffffff1660e01b81526004016200065f91906200133b565b60206040518083038186803b1580156200067857600080fd5b505afa1580156200068d573d6000803e3d6000fd5b505050506040513d601f19601f82011682018060405250810190620006b3919062000deb565b73ffffffffffffffffffffffffffffffffffffffff16146200070c576040517f08c379a00000000000000000000000000000000000000000000000000000000081526004016200070390620012d5565b60405180910390fd5b8173ffffffffffffffffffffffffffffffffffffffff166342842e0e33600160008673ffffffffffffffffffffffffffffffffffffffff1673ffffffffffffffffffffffffffffffffffffffff16815260200190815260200160002060009054906101000a900473ffffffffffffffffffffffffffffffffffffffff16846040518463ffffffff1660e01b8152600401620007aa939291906200120a565b600060405180830381600087803b158015620007c557600080fd5b505af1158015620007da573d6000803e3d6000fd5b50505050600160008373ffffffffffffffffffffffffffffffffffffffff1673ffffffffffffffffffffffffffffffffffffffff16815260200190815260200160002060009054906101000a900473ffffffffffffffffffffffffffffffffffffffff1673ffffffffffffffffffffffffffffffffffffffff166340c10f1933836040518363ffffffff1660e01b81526004016200087a92919062001247565b600060405180830381600087803b1580156200089557600080fd5b505af1158015620008aa573d6000803e3d6000fd5b50505050808273ffffffffffffffffffffffffffffffffffffffff163373ffffffffffffffffffffffffffffffffffffffff167f6ad6fe403f45ae5b0818bc0ab9c1e2e87857ff0db57ede3e1c123319ab5525eb306040516200090e919062001192565b60405180910390a45050565b60006200092662000be1565b73ffffffffffffffffffffffffffffffffffffffff166200094662000509565b73ffffffffffffffffffffffffffffffffffffffff16146200099f576040517f08c379a00000000000000000000000000000000000000000000000000000000081526004016200099690620012f7565b60405180910390fd5b600073ffffffffffffffffffffffffffffffffffffffff168373ffffffffffffffffffffffffffffffffffffffff16141562000a12576040517f08c379a000000000000000000000000000000000000000000000000000000000815260040162000a099062001291565b60405180910390fd5b60003084848560405162000a269062000cad565b62000a359493929190620011af565b604051809103906000f08015801562000a52573d6000803e3d6000fd5b50905080600160008673ffffffffffffffffffffffffffffffffffffffff1673ffffffffffffffffffffffffffffffffffffffff16815260200190815260200160002060006101000a81548173ffffffffffffffffffffffffffffffffffffffff021916908373ffffffffffffffffffffffffffffffffffffffff1602179055508091505092915050565b62000ae762000be1565b73ffffffffffffffffffffffffffffffffffffffff1662000b0762000509565b73ffffffffffffffffffffffffffffffffffffffff161462000b60576040517f08c379a000000000000000000000000000000000000000000000000000000000815260040162000b5790620012f7565b60405180910390fd5b600073ffffffffffffffffffffffffffffffffffffffff168173ffffffffffffffffffffffffffffffffffffffff16141562000bd3576040517f08c379a000000000000000000000000000000000000000000000000000000000815260040162000bca90620012b3565b60405180910390fd5b62000bde8162000be9565b50565b600033905090565b60008060009054906101000a900473ffffffffffffffffffffffffffffffffffffffff169050816000806101000a81548173ffffffffffffffffffffffffffffffffffffffff021916908373ffffffffffffffffffffffffffffffffffffffff1602179055508173ffffffffffffffffffffffffffffffffffffffff168173ffffffffffffffffffffffffffffffffffffffff167f8be0079c531659141344cd1fd0a4f28419497f9722a3daafe3b4186f6b6457e060405160405180910390a35050565b613e9380620014ff83390190565b600062000cd262000ccc846200138c565b62001358565b90508281526020810184848401111562000ceb57600080fd5b62000cf884828562001445565b509392505050565b60008135905062000d1181620014ca565b92915050565b60008151905062000d2881620014ca565b92915050565b60008083601f84011262000d4157600080fd5b8235905067ffffffffffffffff81111562000d5b57600080fd5b60208301915083600182028301111562000d7457600080fd5b9250929050565b600082601f83011262000d8d57600080fd5b813562000d9f84826020860162000cbb565b91505092915050565b60008135905062000db981620014e4565b92915050565b60006020828403121562000dd257600080fd5b600062000de28482850162000d00565b91505092915050565b60006020828403121562000dfe57600080fd5b600062000e0e8482850162000d17565b91505092915050565b60008060008060006080868803121562000e3057600080fd5b600062000e408882890162000d00565b955050602062000e538882890162000d00565b945050604062000e668882890162000da8565b935050606086013567ffffffffffffffff81111562000e8457600080fd5b62000e928882890162000d2e565b92509250509295509295909350565b6000806040838503121562000eb557600080fd5b600062000ec58582860162000d00565b925050602083013567ffffffffffffffff81111562000ee357600080fd5b62000ef18582860162000d7b565b9150509250929050565b6000806040838503121562000f0f57600080fd5b600062000f1f8582860162000d00565b925050602062000f328582860162000da8565b9150509250929050565b62000f4781620013db565b82525050565b62000f5881620013ef565b82525050565b600062000f6b82620013bf565b62000f778185620013ca565b935062000f8981856020860162001454565b62000f9481620014b9565b840191505092915050565b600062000fae602183620013ca565b91507f4e4654506f6f6c3a206e66744173736574206973207a65726f2061646472657360008301527f73000000000000000000000000000000000000000000000000000000000000006020830152604082019050919050565b600062001016602683620013ca565b91507f4f776e61626c653a206e6577206f776e657220697320746865207a65726f206160008301527f64647265737300000000000000000000000000000000000000000000000000006020830152604082019050919050565b60006200107e602583620013ca565b91507f4e4654506f6f6c3a2063616c6c6572206973206e6f74206e667441737365742060008301527f6f776e65720000000000000000000000000000000000000000000000000000006020830152604082019050919050565b6000620010e6602083620013ca565b91507f4f776e61626c653a2063616c6c6572206973206e6f7420746865206f776e65726000830152602082019050919050565b600062001128602683620013ca565b91507f4e4654506f6f6c3a2063616c6c6572206973206e6f7420786e6674417373657460008301527f206f776e657200000000000000000000000000000000000000000000000000006020830152604082019050919050565b6200118c816200143b565b82525050565b6000602082019050620011a9600083018462000f3c565b92915050565b6000608082019050620011c6600083018762000f3c565b620011d5602083018662000f3c565b8181036040830152620011e9818562000f5e565b90508181036060830152620011ff818462000f5e565b905095945050505050565b600060608201905062001221600083018662000f3c565b62001230602083018562000f3c565b6200123f604083018462001181565b949350505050565b60006040820190506200125e600083018562000f3c565b6200126d602083018462001181565b9392505050565b60006020820190506200128b600083018462000f4d565b92915050565b60006020820190508181036000830152620012ac8162000f9f565b9050919050565b60006020820190508181036000830152620012ce8162001007565b9050919050565b60006020820190508181036000830152620012f0816200106f565b9050919050565b600060208201905081810360008301526200131281620010d7565b9050919050565b60006020820190508181036000830152620013348162001119565b9050919050565b600060208201905062001352600083018462001181565b92915050565b6000604051905081810181811067ffffffffffffffff821117156200138257620013816200148a565b5b8060405250919050565b600067ffffffffffffffff821115620013aa57620013a96200148a565b5b601f19601f8301169050602081019050919050565b600081519050919050565b600082825260208201905092915050565b6000620013e8826200141b565b9050919050565b60007fffffffff0000000000000000000000000000000000000000000000000000000082169050919050565b600073ffffffffffffffffffffffffffffffffffffffff82169050919050565b6000819050919050565b82818337600083830152505050565b60005b838110156200147457808201518184015260208101905062001457565b8381111562001484576000848401525b50505050565b7f4e487b7100000000000000000000000000000000000000000000000000000000600052604160045260246000fd5b6000601f19601f8301169050919050565b620014d581620013db565b8114620014e157600080fd5b50565b620014ef816200143b565b8114620014fb57600080fd5b5056fe60806040523480156200001157600080fd5b5060405162003e9338038062003e93833981810160405281019062000037919062000320565b8181816000908051906020019062000051929190620001e7565b5080600190805190602001906200006a929190620001e7565b5050506200008d620000816200011960201b60201c565b6200012160201b60201c565b83600c60006101000a81548173ffffffffffffffffffffffffffffffffffffffff021916908373ffffffffffffffffffffffffffffffffffffffff16021790555082600b60006101000a81548173ffffffffffffffffffffffffffffffffffffffff021916908373ffffffffffffffffffffffffffffffffffffffff160217905550505050506200053d565b600033905090565b6000600a60009054906101000a900473ffffffffffffffffffffffffffffffffffffffff16905081600a60006101000a81548173ffffffffffffffffffffffffffffffffffffffff021916908373ffffffffffffffffffffffffffffffffffffffff1602179055508173ffffffffffffffffffffffffffffffffffffffff168173ffffffffffffffffffffffffffffffffffffffff167f8be0079c531659141344cd1fd0a4f28419497f9722a3daafe3b4186f6b6457e060405160405180910390a35050565b828054620001f5906200048f565b90600052602060002090601f01602090048101928262000219576000855562000265565b82601f106200023457805160ff191683800117855562000265565b8280016001018555821562000265579182015b828111156200026457825182559160200191906001019062000247565b5b50905062000274919062000278565b5090565b5b808211156200029357600081600090555060010162000279565b5090565b6000620002ae620002a884620003f2565b620003be565b905082815260208101848484011115620002c757600080fd5b620002d484828562000459565b509392505050565b600081519050620002ed8162000523565b92915050565b600082601f8301126200030557600080fd5b81516200031784826020860162000297565b91505092915050565b600080600080608085870312156200033757600080fd5b60006200034787828801620002dc565b94505060206200035a87828801620002dc565b935050604085015167ffffffffffffffff8111156200037857600080fd5b6200038687828801620002f3565b925050606085015167ffffffffffffffff811115620003a457600080fd5b620003b287828801620002f3565b91505092959194509250565b6000604051905081810181811067ffffffffffffffff82111715620003e857620003e7620004f4565b5b8060405250919050565b600067ffffffffffffffff82111562000410576200040f620004f4565b5b601f19601f8301169050602081019050919050565b6000620004328262000439565b9050919050565b600073ffffffffffffffffffffffffffffffffffffffff82169050919050565b60005b83811015620004795780820151818401526020810190506200045c565b8381111562000489576000848401525b50505050565b60006002820490506001821680620004a857607f821691505b60208210811415620004bf57620004be620004c5565b5b50919050565b7f4e487b7100000000000000000000000000000000000000000000000000000000600052602260045260246000fd5b7f4e487b7100000000000000000000000000000000000000000000000000000000600052604160045260246000fd5b6200052e8162000425565b81146200053a57600080fd5b50565b613946806200054d6000396000f3fe608060405234801561001057600080fd5b506004361061014d5760003560e01c806355f804b3116100c35780639dc29fac1161007c5780639dc29fac146103b0578063a22cb465146103cc578063b88d4fde146103e8578063c87b56dd14610404578063e985e9c514610434578063f2fde38b146104645761014d565b806355f804b3146102ee5780636352211e1461030a57806370a082311461033a578063715018a61461036a5780638da5cb5b1461037457806395d89b41146103925761014d565b806318160ddd1161011557806318160ddd1461021c57806323b872dd1461023a5780632f745c591461025657806340c10f191461028657806342842e0e146102a25780634f6ccce7146102be5761014d565b806301ffc9a71461015257806306fdde0314610182578063081812fc146101a0578063095ea7b3146101d0578063150b7a02146101ec575b600080fd5b61016c600480360381019061016791906128cc565b610480565b6040516101799190613223565b60405180910390f35b61018a610492565b6040516101979190613259565b60405180910390f35b6101ba60048036038101906101b5919061295f565b610524565b6040516101c79190613185565b60405180910390f35b6101ea60048036038101906101e59190612890565b6105a9565b005b61020660048036038101906102019190612759565b6106c1565b604051610213919061323e565b60405180910390f35b6102246106d6565b60405161023191906134db565b60405180910390f35b610254600480360381019061024f919061270a565b6106e3565b005b610270600480360381019061026b9190612890565b610743565b60405161027d91906134db565b60405180910390f35b6102a0600480360381019061029b9190612890565b6107e8565b005b6102bc60048036038101906102b7919061270a565b610886565b005b6102d860048036038101906102d3919061295f565b6108a6565b6040516102e591906134db565b60405180910390f35b6103086004803603810190610303919061291e565b61093d565b005b610324600480360381019061031f919061295f565b6109d3565b6040516103319190613185565b60405180910390f35b610354600480360381019061034f91906126a5565b610a85565b60405161036191906134db565b60405180910390f35b610372610b3d565b005b61037c610bc5565b6040516103899190613185565b60405180910390f35b61039a610bef565b6040516103a79190613259565b60405180910390f35b6103ca60048036038101906103c59190612890565b610c81565b005b6103e660048036038101906103e19190612854565b610daf565b005b61040260048036038101906103fd91906127d9565b610dc5565b005b61041e6004803603810190610419919061295f565b610e27565b60405161042b9190613259565b60405180910390f35b61044e600480360381019061044991906126ce565b610ece565b60405161045b9190613223565b60405180910390f35b61047e600480360381019061047991906126a5565b610f62565b005b600061048b8261105a565b9050919050565b6060600080546104a19061373b565b80601f01602080910402602001604051908101604052809291908181526020018280546104cd9061373b565b801561051a5780601f106104ef5761010080835404028352916020019161051a565b820191906000526020600020905b8154815290600101906020018083116104fd57829003601f168201915b5050505050905090565b600061052f826110d4565b61056e576040517f08c379a0000000000000000000000000000000000000000000000000000000008152600401610565906133db565b60405180910390fd5b6004600083815260200190815260200160002060009054906101000a900473ffffffffffffffffffffffffffffffffffffffff169050919050565b60006105b4826109d3565b90508073ffffffffffffffffffffffffffffffffffffffff168373ffffffffffffffffffffffffffffffffffffffff161415610625576040517f08c379a000000000000000000000000000000000000000000000000000000000815260040161061c9061345b565b60405180910390fd5b8073ffffffffffffffffffffffffffffffffffffffff16610644611140565b73ffffffffffffffffffffffffffffffffffffffff16148061067357506106728161066d611140565b610ece565b5b6106b2576040517f08c379a00000000000000000000000000000000000000000000000000000000081526004016106a99061335b565b60405180910390fd5b6106bc8383611148565b505050565b600063150b7a0260e01b905095945050505050565b6000600880549050905090565b6106f46106ee611140565b82611201565b610733576040517f08c379a000000000000000000000000000000000000000000000000000000000815260040161072a9061347b565b60405180910390fd5b61073e8383836112df565b505050565b600061074e83610a85565b821061078f576040517f08c379a00000000000000000000000000000000000000000000000000000000081526004016107869061327b565b60405180910390fd5b600660008473ffffffffffffffffffffffffffffffffffffffff1673ffffffffffffffffffffffffffffffffffffffff168152602001908152602001600020600083815260200190815260200160002054905092915050565b600c60009054906101000a900473ffffffffffffffffffffffffffffffffffffffff1673ffffffffffffffffffffffffffffffffffffffff163373ffffffffffffffffffffffffffffffffffffffff1614610878576040517f08c379a000000000000000000000000000000000000000000000000000000000815260040161086f906134bb565b60405180910390fd5b610882828261153b565b5050565b6108a183838360405180602001604052806000815250610dc5565b505050565b60006108b06106d6565b82106108f1576040517f08c379a00000000000000000000000000000000000000000000000000000000081526004016108e89061349b565b60405180910390fd5b6008828154811061092b577f4e487b7100000000000000000000000000000000000000000000000000000000600052603260045260246000fd5b90600052602060002001549050919050565b610945611140565b73ffffffffffffffffffffffffffffffffffffffff16610963610bc5565b73ffffffffffffffffffffffffffffffffffffffff16146109b9576040517f08c379a00000000000000000000000000000000000000000000000000000000081526004016109b0906133fb565b60405180910390fd5b80600d90805190602001906109cf92919061247f565b5050565b6000806002600084815260200190815260200160002060009054906101000a900473ffffffffffffffffffffffffffffffffffffffff169050600073ffffffffffffffffffffffffffffffffffffffff168173ffffffffffffffffffffffffffffffffffffffff161415610a7c576040517f08c379a0000000000000000000000000000000000000000000000000000000008152600401610a739061339b565b60405180910390fd5b80915050919050565b60008073ffffffffffffffffffffffffffffffffffffffff168273ffffffffffffffffffffffffffffffffffffffff161415610af6576040517f08c379a0000000000000000000000000000000000000000000000000000000008152600401610aed9061337b565b60405180910390fd5b600360008373ffffffffffffffffffffffffffffffffffffffff1673ffffffffffffffffffffffffffffffffffffffff168152602001908152602001600020549050919050565b610b45611140565b73ffffffffffffffffffffffffffffffffffffffff16610b63610bc5565b73ffffffffffffffffffffffffffffffffffffffff1614610bb9576040517f08c379a0000000000000000000000000000000000000000000000000000000008152600401610bb0906133fb565b60405180910390fd5b610bc36000611709565b565b6000600a60009054906101000a900473ffffffffffffffffffffffffffffffffffffffff16905090565b606060018054610bfe9061373b565b80601f0160208091040260200160405190810160405280929190818152602001828054610c2a9061373b565b8015610c775780601f10610c4c57610100808354040283529160200191610c77565b820191906000526020600020905b815481529060010190602001808311610c5a57829003601f168201915b5050505050905090565b600c60009054906101000a900473ffffffffffffffffffffffffffffffffffffffff1673ffffffffffffffffffffffffffffffffffffffff163373ffffffffffffffffffffffffffffffffffffffff1614610d11576040517f08c379a0000000000000000000000000000000000000000000000000000000008152600401610d08906134bb565b60405180910390fd5b610d1a816117cf565b600b60009054906101000a900473ffffffffffffffffffffffffffffffffffffffff1673ffffffffffffffffffffffffffffffffffffffff166342842e0e3084846040518463ffffffff1660e01b8152600401610d79939291906131a0565b600060405180830381600087803b158015610d9357600080fd5b505af1158015610da7573d6000803e3d6000fd5b505050505050565b610dc1610dba611140565b83836118e0565b5050565b610dd6610dd0611140565b83611201565b610e15576040517f08c379a0000000000000000000000000000000000000000000000000000000008152600401610e0c9061347b565b60405180910390fd5b610e2184848484611a4d565b50505050565b6060610e32826110d4565b610e71576040517f08c379a0000000000000000000000000000000000000000000000000000000008152600401610e689061343b565b60405180910390fd5b6000610e7b611aa9565b90506000815111610e9b5760405180602001604052806000815250610ec6565b80610ea584611b3b565b604051602001610eb6929190613161565b6040516020818303038152906040525b915050919050565b6000600560008473ffffffffffffffffffffffffffffffffffffffff1673ffffffffffffffffffffffffffffffffffffffff16815260200190815260200160002060008373ffffffffffffffffffffffffffffffffffffffff1673ffffffffffffffffffffffffffffffffffffffff16815260200190815260200160002060009054906101000a900460ff16905092915050565b610f6a611140565b73ffffffffffffffffffffffffffffffffffffffff16610f88610bc5565b73ffffffffffffffffffffffffffffffffffffffff1614610fde576040517f08c379a0000000000000000000000000000000000000000000000000000000008152600401610fd5906133fb565b60405180910390fd5b600073ffffffffffffffffffffffffffffffffffffffff168173ffffffffffffffffffffffffffffffffffffffff16141561104e576040517f08c379a0000000000000000000000000000000000000000000000000000000008152600401611045906132bb565b60405180910390fd5b61105781611709565b50565b60007f780e9d63000000000000000000000000000000000000000000000000000000007bffffffffffffffffffffffffffffffffffffffffffffffffffffffff1916827bffffffffffffffffffffffffffffffffffffffffffffffffffffffff191614806110cd57506110cc82611ce8565b5b9050919050565b60008073ffffffffffffffffffffffffffffffffffffffff166002600084815260200190815260200160002060009054906101000a900473ffffffffffffffffffffffffffffffffffffffff1673ffffffffffffffffffffffffffffffffffffffff1614159050919050565b600033905090565b816004600083815260200190815260200160002060006101000a81548173ffffffffffffffffffffffffffffffffffffffff021916908373ffffffffffffffffffffffffffffffffffffffff160217905550808273ffffffffffffffffffffffffffffffffffffffff166111bb836109d3565b73ffffffffffffffffffffffffffffffffffffffff167f8c5be1e5ebec7d5bd14f71427d1e84f3dd0314c0f7b2291e5b200ac8c7c3b92560405160405180910390a45050565b600061120c826110d4565b61124b576040517f08c379a00000000000000000000000000000000000000000000000000000000081526004016112429061333b565b60405180910390fd5b6000611256836109d3565b90508073ffffffffffffffffffffffffffffffffffffffff168473ffffffffffffffffffffffffffffffffffffffff1614806112c557508373ffffffffffffffffffffffffffffffffffffffff166112ad84610524565b73ffffffffffffffffffffffffffffffffffffffff16145b806112d657506112d58185610ece565b5b91505092915050565b8273ffffffffffffffffffffffffffffffffffffffff166112ff826109d3565b73ffffffffffffffffffffffffffffffffffffffff1614611355576040517f08c379a000000000000000000000000000000000000000000000000000000000815260040161134c9061341b565b60405180910390fd5b600073ffffffffffffffffffffffffffffffffffffffff168273ffffffffffffffffffffffffffffffffffffffff1614156113c5576040517f08c379a00000000000000000000000000000000000000000000000000000000081526004016113bc906132fb565b60405180910390fd5b6113d0838383611dca565b6113db600082611148565b6001600360008573ffffffffffffffffffffffffffffffffffffffff1673ffffffffffffffffffffffffffffffffffffffff168152602001908152602001600020600082825461142b9190613651565b925050819055506001600360008473ffffffffffffffffffffffffffffffffffffffff1673ffffffffffffffffffffffffffffffffffffffff168152602001908152602001600020600082825461148291906135ca565b92505081905550816002600083815260200190815260200160002060006101000a81548173ffffffffffffffffffffffffffffffffffffffff021916908373ffffffffffffffffffffffffffffffffffffffff160217905550808273ffffffffffffffffffffffffffffffffffffffff168473ffffffffffffffffffffffffffffffffffffffff167fddf252ad1be2c89b69c2b068fc378daa952ba7f163c4a11628f55a4df523b3ef60405160405180910390a4505050565b600073ffffffffffffffffffffffffffffffffffffffff168273ffffffffffffffffffffffffffffffffffffffff1614156115ab576040517f08c379a00000000000000000000000000000000000000000000000000000000081526004016115a2906133bb565b60405180910390fd5b6115b4816110d4565b156115f4576040517f08c379a00000000000000000000000000000000000000000000000000000000081526004016115eb906132db565b60405180910390fd5b61160060008383611dca565b6001600360008473ffffffffffffffffffffffffffffffffffffffff1673ffffffffffffffffffffffffffffffffffffffff168152602001908152602001600020600082825461165091906135ca565b92505081905550816002600083815260200190815260200160002060006101000a81548173ffffffffffffffffffffffffffffffffffffffff021916908373ffffffffffffffffffffffffffffffffffffffff160217905550808273ffffffffffffffffffffffffffffffffffffffff16600073ffffffffffffffffffffffffffffffffffffffff167fddf252ad1be2c89b69c2b068fc378daa952ba7f163c4a11628f55a4df523b3ef60405160405180910390a45050565b6000600a60009054906101000a900473ffffffffffffffffffffffffffffffffffffffff16905081600a60006101000a81548173ffffffffffffffffffffffffffffffffffffffff021916908373ffffffffffffffffffffffffffffffffffffffff1602179055508173ffffffffffffffffffffffffffffffffffffffff168173ffffffffffffffffffffffffffffffffffffffff167f8be0079c531659141344cd1fd0a4f28419497f9722a3daafe3b4186f6b6457e060405160405180910390a35050565b60006117da826109d3565b90506117e881600084611dca565b6117f3600083611148565b6001600360008373ffffffffffffffffffffffffffffffffffffffff1673ffffffffffffffffffffffffffffffffffffffff16815260200190815260200160002060008282546118439190613651565b925050819055506002600083815260200190815260200160002060006101000a81549073ffffffffffffffffffffffffffffffffffffffff021916905581600073ffffffffffffffffffffffffffffffffffffffff168273ffffffffffffffffffffffffffffffffffffffff167fddf252ad1be2c89b69c2b068fc378daa952ba7f163c4a11628f55a4df523b3ef60405160405180910390a45050565b8173ffffffffffffffffffffffffffffffffffffffff168373ffffffffffffffffffffffffffffffffffffffff16141561194f576040517f08c379a00000000000000000000000000000000000000000000000000000000081526004016119469061331b565b60405180910390fd5b80600560008573ffffffffffffffffffffffffffffffffffffffff1673ffffffffffffffffffffffffffffffffffffffff16815260200190815260200160002060008473ffffffffffffffffffffffffffffffffffffffff1673ffffffffffffffffffffffffffffffffffffffff16815260200190815260200160002060006101000a81548160ff0219169083151502179055508173ffffffffffffffffffffffffffffffffffffffff168373ffffffffffffffffffffffffffffffffffffffff167f17307eab39ab6107e8899845ad3d59bd9653f200f220920489ca2b5937696c3183604051611a409190613223565b60405180910390a3505050565b611a588484846112df565b611a6484848484611dda565b611aa3576040517f08c379a0000000000000000000000000000000000000000000000000000000008152600401611a9a9061329b565b60405180910390fd5b50505050565b6060600d8054611ab89061373b565b80601f0160208091040260200160405190810160405280929190818152602001828054611ae49061373b565b8015611b315780601f10611b0657610100808354040283529160200191611b31565b820191906000526020600020905b815481529060010190602001808311611b1457829003601f168201915b5050505050905090565b60606000821415611b83576040518060400160405280600181526020017f30000000000000000000000000000000000000000000000000000000000000008152509050611ce3565b600082905060005b60008214611bb5578080611b9e9061376d565b915050600a82611bae9190613620565b9150611b8b565b60008167ffffffffffffffff811115611bf7577f4e487b7100000000000000000000000000000000000000000000000000000000600052604160045260246000fd5b6040519080825280601f01601f191660200182016040528015611c295781602001600182028036833780820191505090505b5090505b60008514611cdc57600182611c429190613651565b9150600a85611c5191906137b6565b6030611c5d91906135ca565b60f81b818381518110611c99577f4e487b7100000000000000000000000000000000000000000000000000000000600052603260045260246000fd5b60200101907effffffffffffffffffffffffffffffffffffffffffffffffffffffffffffff1916908160001a905350600a85611cd59190613620565b9450611c2d565b8093505050505b919050565b60007f80ac58cd000000000000000000000000000000000000000000000000000000007bffffffffffffffffffffffffffffffffffffffffffffffffffffffff1916827bffffffffffffffffffffffffffffffffffffffffffffffffffffffff19161480611db357507f5b5e139f000000000000000000000000000000000000000000000000000000007bffffffffffffffffffffffffffffffffffffffffffffffffffffffff1916827bffffffffffffffffffffffffffffffffffffffffffffffffffffffff1916145b80611dc35750611dc282611f71565b5b9050919050565b611dd5838383611fdb565b505050565b6000611dfb8473ffffffffffffffffffffffffffffffffffffffff166120ef565b15611f64578373ffffffffffffffffffffffffffffffffffffffff1663150b7a02611e24611140565b8786866040518563ffffffff1660e01b8152600401611e4694939291906131d7565b602060405180830381600087803b158015611e6057600080fd5b505af1925050508015611e9157506040513d601f19601f82011682018060405250810190611e8e91906128f5565b60015b611f14573d8060008114611ec1576040519150601f19603f3d011682016040523d82523d6000602084013e611ec6565b606091505b50600081511415611f0c576040517f08c379a0000000000000000000000000000000000000000000000000000000008152600401611f039061329b565b60405180910390fd5b805181602001fd5b63150b7a0260e01b7bffffffffffffffffffffffffffffffffffffffffffffffffffffffff1916817bffffffffffffffffffffffffffffffffffffffffffffffffffffffff191614915050611f69565b600190505b949350505050565b60007f01ffc9a7000000000000000000000000000000000000000000000000000000007bffffffffffffffffffffffffffffffffffffffffffffffffffffffff1916827bffffffffffffffffffffffffffffffffffffffffffffffffffffffff1916149050919050565b611fe6838383612102565b600073ffffffffffffffffffffffffffffffffffffffff168373ffffffffffffffffffffffffffffffffffffffff1614156120295761202481612107565b612068565b8173ffffffffffffffffffffffffffffffffffffffff168373ffffffffffffffffffffffffffffffffffffffff1614612067576120668382612150565b5b5b600073ffffffffffffffffffffffffffffffffffffffff168273ffffffffffffffffffffffffffffffffffffffff1614156120ab576120a6816122bd565b6120ea565b8273ffffffffffffffffffffffffffffffffffffffff168273ffffffffffffffffffffffffffffffffffffffff16146120e9576120e88282612400565b5b5b505050565b600080823b905060008111915050919050565b505050565b6008805490506009600083815260200190815260200160002081905550600881908060018154018082558091505060019003906000526020600020016000909190919091505550565b6000600161215d84610a85565b6121679190613651565b905060006007600084815260200190815260200160002054905081811461224c576000600660008673ffffffffffffffffffffffffffffffffffffffff1673ffffffffffffffffffffffffffffffffffffffff168152602001908152602001600020600084815260200190815260200160002054905080600660008773ffffffffffffffffffffffffffffffffffffffff1673ffffffffffffffffffffffffffffffffffffffff168152602001908152602001600020600084815260200190815260200160002081905550816007600083815260200190815260200160002081905550505b6007600084815260200190815260200160002060009055600660008573ffffffffffffffffffffffffffffffffffffffff1673ffffffffffffffffffffffffffffffffffffffff16815260200190815260200160002060008381526020019081526020016000206000905550505050565b600060016008805490506122d19190613651565b9050600060096000848152602001908152602001600020549050600060088381548110612327577f4e487b7100000000000000000000000000000000000000000000000000000000600052603260045260246000fd5b90600052602060002001549050806008838154811061236f577f4e487b7100000000000000000000000000000000000000000000000000000000600052603260045260246000fd5b9060005260206000200181905550816009600083815260200190815260200160002081905550600960008581526020019081526020016000206000905560088054806123e4577f4e487b7100000000000000000000000000000000000000000000000000000000600052603160045260246000fd5b6001900381819060005260206000200160009055905550505050565b600061240b83610a85565b905081600660008573ffffffffffffffffffffffffffffffffffffffff1673ffffffffffffffffffffffffffffffffffffffff168152602001908152602001600020600083815260200190815260200160002081905550806007600084815260200190815260200160002081905550505050565b82805461248b9061373b565b90600052602060002090601f0160209004810192826124ad57600085556124f4565b82601f106124c657805160ff19168380011785556124f4565b828001600101855582156124f4579182015b828111156124f35782518255916020019190600101906124d8565b5b5090506125019190612505565b5090565b5b8082111561251e576000816000905550600101612506565b5090565b600061253561253084613527565b6134f6565b90508281526020810184848401111561254d57600080fd5b6125588482856136f9565b509392505050565b600061257361256e84613557565b6134f6565b90508281526020810184848401111561258b57600080fd5b6125968482856136f9565b509392505050565b6000813590506125ad816138b4565b92915050565b6000813590506125c2816138cb565b92915050565b6000813590506125d7816138e2565b92915050565b6000815190506125ec816138e2565b92915050565b60008083601f84011261260457600080fd5b8235905067ffffffffffffffff81111561261d57600080fd5b60208301915083600182028301111561263557600080fd5b9250929050565b600082601f83011261264d57600080fd5b813561265d848260208601612522565b91505092915050565b600082601f83011261267757600080fd5b8135612687848260208601612560565b91505092915050565b60008135905061269f816138f9565b92915050565b6000602082840312156126b757600080fd5b60006126c58482850161259e565b91505092915050565b600080604083850312156126e157600080fd5b60006126ef8582860161259e565b92505060206127008582860161259e565b9150509250929050565b60008060006060848603121561271f57600080fd5b600061272d8682870161259e565b935050602061273e8682870161259e565b925050604061274f86828701612690565b9150509250925092565b60008060008060006080868803121561277157600080fd5b600061277f8882890161259e565b95505060206127908882890161259e565b94505060406127a188828901612690565b935050606086013567ffffffffffffffff8111156127be57600080fd5b6127ca888289016125f2565b92509250509295509295909350565b600080600080608085870312156127ef57600080fd5b60006127fd8782880161259e565b945050602061280e8782880161259e565b935050604061281f87828801612690565b925050606085013567ffffffffffffffff81111561283c57600080fd5b6128488782880161263c565b91505092959194509250565b6000806040838503121561286757600080fd5b60006128758582860161259e565b9250506020612886858286016125b3565b9150509250929050565b600080604083850312156128a357600080fd5b60006128b18582860161259e565b92505060206128c285828601612690565b9150509250929050565b6000602082840312156128de57600080fd5b60006128ec848285016125c8565b91505092915050565b60006020828403121561290757600080fd5b6000612915848285016125dd565b91505092915050565b60006020828403121561293057600080fd5b600082013567ffffffffffffffff81111561294a57600080fd5b61295684828501612666565b91505092915050565b60006020828403121561297157600080fd5b600061297f84828501612690565b91505092915050565b61299181613685565b82525050565b6129a081613697565b82525050565b6129af816136a3565b82525050565b60006129c082613587565b6129ca818561359d565b93506129da818560208601613708565b6129e3816138a3565b840191505092915050565b60006129f982613592565b612a0381856135ae565b9350612a13818560208601613708565b612a1c816138a3565b840191505092915050565b6000612a3282613592565b612a3c81856135bf565b9350612a4c818560208601613708565b80840191505092915050565b6000612a65602b836135ae565b91507f455243373231456e756d657261626c653a206f776e657220696e646578206f7560008301527f74206f6620626f756e64730000000000000000000000000000000000000000006020830152604082019050919050565b6000612acb6032836135ae565b91507f4552433732313a207472616e7366657220746f206e6f6e20455243373231526560008301527f63656976657220696d706c656d656e74657200000000000000000000000000006020830152604082019050919050565b6000612b316026836135ae565b91507f4f776e61626c653a206e6577206f776e657220697320746865207a65726f206160008301527f64647265737300000000000000000000000000000000000000000000000000006020830152604082019050919050565b6000612b97601c836135ae565b91507f4552433732313a20746f6b656e20616c7265616479206d696e746564000000006000830152602082019050919050565b6000612bd76024836135ae565b91507f4552433732313a207472616e7366657220746f20746865207a65726f2061646460008301527f72657373000000000000000000000000000000000000000000000000000000006020830152604082019050919050565b6000612c3d6019836135ae565b91507f4552433732313a20617070726f766520746f2063616c6c6572000000000000006000830152602082019050919050565b6000612c7d602c836135ae565b91507f4552433732313a206f70657261746f7220717565727920666f72206e6f6e657860008301527f697374656e7420746f6b656e00000000000000000000000000000000000000006020830152604082019050919050565b6000612ce36038836135ae565b91507f4552433732313a20617070726f76652063616c6c6572206973206e6f74206f7760008301527f6e6572206e6f7220617070726f76656420666f7220616c6c00000000000000006020830152604082019050919050565b6000612d49602a836135ae565b91507f4552433732313a2062616c616e636520717565727920666f7220746865207a6560008301527f726f2061646472657373000000000000000000000000000000000000000000006020830152604082019050919050565b6000612daf6029836135ae565b91507f4552433732313a206f776e657220717565727920666f72206e6f6e657869737460008301527f656e7420746f6b656e00000000000000000000000000000000000000000000006020830152604082019050919050565b6000612e156020836135ae565b91507f4552433732313a206d696e7420746f20746865207a65726f20616464726573736000830152602082019050919050565b6000612e55602c836135ae565b91507f4552433732313a20617070726f76656420717565727920666f72206e6f6e657860008301527f697374656e7420746f6b656e00000000000000000000000000000000000000006020830152604082019050919050565b6000612ebb6020836135ae565b91507f4f776e61626c653a2063616c6c6572206973206e6f7420746865206f776e65726000830152602082019050919050565b6000612efb6029836135ae565b91507f4552433732313a207472616e73666572206f6620746f6b656e2074686174206960008301527f73206e6f74206f776e00000000000000000000000000000000000000000000006020830152604082019050919050565b6000612f61602f836135ae565b91507f4552433732314d657461646174613a2055524920717565727920666f72206e6f60008301527f6e6578697374656e7420746f6b656e00000000000000000000000000000000006020830152604082019050919050565b6000612fc76021836135ae565b91507f4552433732313a20617070726f76616c20746f2063757272656e74206f776e6560008301527f72000000000000000000000000000000000000000000000000000000000000006020830152604082019050919050565b600061302d6031836135ae565b91507f4552433732313a207472616e736665722063616c6c6572206973206e6f74206f60008301527f776e6572206e6f7220617070726f7665640000000000000000000000000000006020830152604082019050919050565b6000613093602c836135ae565b91507f455243373231456e756d657261626c653a20676c6f62616c20696e646578206f60008301527f7574206f6620626f756e647300000000000000000000000000000000000000006020830152604082019050919050565b60006130f9602d836135ae565b91507f5468652063616c6c6572206f6620746869732066756e6374696f6e206d75737460008301527f2062652061206e6674506f6f6c000000000000000000000000000000000000006020830152604082019050919050565b61315b816136ef565b82525050565b600061316d8285612a27565b91506131798284612a27565b91508190509392505050565b600060208201905061319a6000830184612988565b92915050565b60006060820190506131b56000830186612988565b6131c26020830185612988565b6131cf6040830184613152565b949350505050565b60006080820190506131ec6000830187612988565b6131f96020830186612988565b6132066040830185613152565b818103606083015261321881846129b5565b905095945050505050565b60006020820190506132386000830184612997565b92915050565b600060208201905061325360008301846129a6565b92915050565b6000602082019050818103600083015261327381846129ee565b905092915050565b6000602082019050818103600083015261329481612a58565b9050919050565b600060208201905081810360008301526132b481612abe565b9050919050565b600060208201905081810360008301526132d481612b24565b9050919050565b600060208201905081810360008301526132f481612b8a565b9050919050565b6000602082019050818103600083015261331481612bca565b9050919050565b6000602082019050818103600083015261333481612c30565b9050919050565b6000602082019050818103600083015261335481612c70565b9050919050565b6000602082019050818103600083015261337481612cd6565b9050919050565b6000602082019050818103600083015261339481612d3c565b9050919050565b600060208201905081810360008301526133b481612da2565b9050919050565b600060208201905081810360008301526133d481612e08565b9050919050565b600060208201905081810360008301526133f481612e48565b9050919050565b6000602082019050818103600083015261341481612eae565b9050919050565b6000602082019050818103600083015261343481612eee565b9050919050565b6000602082019050818103600083015261345481612f54565b9050919050565b6000602082019050818103600083015261347481612fba565b9050919050565b6000602082019050818103600083015261349481613020565b9050919050565b600060208201905081810360008301526134b481613086565b9050919050565b600060208201905081810360008301526134d4816130ec565b9050919050565b60006020820190506134f06000830184613152565b92915050565b6000604051905081810181811067ffffffffffffffff8211171561351d5761351c613874565b5b8060405250919050565b600067ffffffffffffffff82111561354257613541613874565b5b601f19601f8301169050602081019050919050565b600067ffffffffffffffff82111561357257613571613874565b5b601f19601f8301169050602081019050919050565b600081519050919050565b600081519050919050565b600082825260208201905092915050565b600082825260208201905092915050565b600081905092915050565b60006135d5826136ef565b91506135e0836136ef565b9250827fffffffffffffffffffffffffffffffffffffffffffffffffffffffffffffffff03821115613615576136146137e7565b5b828201905092915050565b600061362b826136ef565b9150613636836136ef565b92508261364657613645613816565b5b828204905092915050565b600061365c826136ef565b9150613667836136ef565b92508282101561367a576136796137e7565b5b828203905092915050565b6000613690826136cf565b9050919050565b60008115159050919050565b60007fffffffff0000000000000000000000000000000000000000000000000000000082169050919050565b600073ffffffffffffffffffffffffffffffffffffffff82169050919050565b6000819050919050565b82818337600083830152505050565b60005b8381101561372657808201518184015260208101905061370b565b83811115613735576000848401525b50505050565b6000600282049050600182168061375357607f821691505b6020821081141561376757613766613845565b5b50919050565b6000613778826136ef565b91507fffffffffffffffffffffffffffffffffffffffffffffffffffffffffffffffff8214156137ab576137aa6137e7565b5b600182019050919050565b60006137c1826136ef565b91506137cc836136ef565b9250826137dc576137db613816565b5b828206905092915050565b7f4e487b7100000000000000000000000000000000000000000000000000000000600052601160045260246000fd5b7f4e487b7100000000000000000000000000000000000000000000000000000000600052601260045260246000fd5b7f4e487b7100000000000000000000000000000000000000000000000000000000600052602260045260246000fd5b7f4e487b7100000000000000000000000000000000000000000000000000000000600052604160045260246000fd5b6000601f19601f8301169050919050565b6138bd81613685565b81146138c857600080fd5b50565b6138d481613697565b81146138df57600080fd5b50565b6138eb816136a3565b81146138f657600080fd5b50565b613902816136ef565b811461390d57600080fd5b5056fea2646970667358221220dce905a54a330036cb407d6644167723e87a6af1e529c8027d66953f6d72aa6564736f6c63430008000033a264697066735822122024c3d6868d5de8910d5865fea1ffa9315f843370fd8a0a6c846aa16fa3b197e664736f6c63430008000033",
  "linkReferences": {},
  "deployedLinkReferences": {}
}